{
  "contractName": "BookStore",
  "abi": [
    {
      "inputs": [
        {
          "internalType": "address payable",
          "name": "_owner",
          "type": "address"
        }
      ],
      "payable": false,
      "stateMutability": "nonpayable",
      "type": "constructor"
    },
    {
      "constant": false,
      "inputs": [
        {
          "internalType": "uint256",
          "name": "_index",
          "type": "uint256"
        }
      ],
      "name": "borrow",
      "outputs": [],
      "payable": true,
      "stateMutability": "payable",
      "type": "function"
    },
    {
      "constant": false,
      "inputs": [
        {
          "internalType": "uint256",
          "name": "_index",
          "type": "uint256"
        }
      ],
      "name": "release",
      "outputs": [],
      "payable": false,
      "stateMutability": "nonpayable",
      "type": "function"
    },
    {
      "constant": true,
      "inputs": [],
      "name": "getBooksKeeper",
      "outputs": [
        {
          "internalType": "address[50]",
          "name": "",
          "type": "address[50]"
        }
      ],
      "payable": false,
      "stateMutability": "view",
      "type": "function"
    },
    {
      "constant": true,
      "inputs": [],
      "name": "getBooksState",
      "outputs": [
        {
          "internalType": "enum BookStore.BookState[50]",
          "name": "",
          "type": "uint8[50]"
        }
      ],
      "payable": false,
      "stateMutability": "view",
      "type": "function"
    },
    {
      "constant": true,
      "inputs": [],
      "name": "getBooks",
      "outputs": [
        {
          "internalType": "address[50]",
          "name": "",
          "type": "address[50]"
        },
        {
          "internalType": "enum BookStore.BookState[50]",
          "name": "",
          "type": "uint8[50]"
        }
      ],
      "payable": false,
      "stateMutability": "view",
      "type": "function"
    }
  ],
  "bytecode": "0x608060405234801561001057600080fd5b5060405161075f38038061075f8339818101604052602081101561003357600080fd5b810190808051906020019092919050505080603460006101000a81548173ffffffffffffffffffffffffffffffffffffffff021916908373ffffffffffffffffffffffffffffffffffffffff160217905550506106ca806100956000396000f3fe60806040526004361061004a5760003560e01c806337bdc99b1461004f5780633feb1f211461008a5780638cbbf8ac146100dd5780639f34978914610130578063c5ebeaec146101b2575b600080fd5b34801561005b57600080fd5b506100886004803603602081101561007257600080fd5b81019080803590602001909291905050506101e0565b005b34801561009657600080fd5b5061009f610309565b6040518082603260200280838360005b838110156100ca5780820151818401526020810190506100af565b5050505090500191505060405180910390f35b3480156100e957600080fd5b506100f261038a565b6040518082603260200280838360005b8381101561011d578082015181840152602081019050610102565b5050505090500191505060405180910390f35b34801561013c57600080fd5b50610145610402565b6040518083603260200280838360005b83811015610170578082015181840152602081019050610155565b5050505090500182603260200280838360005b8381101561019e578082015181840152602081019050610183565b505050509050019250505060405180910390f35b6101de600480360360208110156101c857600080fd5b8101908080359060200190929190505050610500565b005b600081101580156101f15750603281105b6101fa57600080fd5b3373ffffffffffffffffffffffffffffffffffffffff166000826032811061021e57fe5b0160009054906101000a900473ffffffffffffffffffffffffffffffffffffffff1673ffffffffffffffffffffffffffffffffffffffff161461026057600080fd5b603460009054906101000a900473ffffffffffffffffffffffffffffffffffffffff166000826032811061029057fe5b0160006101000a81548173ffffffffffffffffffffffffffffffffffffffff021916908373ffffffffffffffffffffffffffffffffffffffff1602179055506000603282603281106102de57fe5b602091828204019190066101000a81548160ff0219169083600181111561030157fe5b021790555050565b61031161064f565b6000603280602002604051908101604052809291908260328015610380576020028201915b8160009054906101000a900473ffffffffffffffffffffffffffffffffffffffff1673ffffffffffffffffffffffffffffffffffffffff1681526020019060010190808311610336575b5050505050905090565b610392610672565b603280806020026040519081016040528092919082603280156103f8576020028201916000905b82829054906101000a900460ff1660018111156103d257fe5b815260200190600101906020826000010492830192600103820291508084116103b95790505b5050505050905090565b61040a61064f565b610412610672565b6000603281603280602002604051908101604052809291908260328015610484576020028201915b8160009054906101000a900473ffffffffffffffffffffffffffffffffffffffff1673ffffffffffffffffffffffffffffffffffffffff168152602001906001019080831161043a575b50505050509150806032806020026040519081016040528092919082603280156104f1576020028201916000905b82829054906101000a900460ff1660018111156104cb57fe5b815260200190600101906020826000010492830192600103820291508084116104b25790505b50505050509050915091509091565b600081101580156105115750603281105b61051a57600080fd5b6000600181111561052757fe5b6032826032811061053457fe5b602091828204019190069054906101000a900460ff16600181111561055557fe5b1461055f57600080fd5b336000826032811061056d57fe5b0160006101000a81548173ffffffffffffffffffffffffffffffffffffffff021916908373ffffffffffffffffffffffffffffffffffffffff1602179055506001603282603281106105bb57fe5b602091828204019190066101000a81548160ff021916908360018111156105de57fe5b0217905550603460009054906101000a900473ffffffffffffffffffffffffffffffffffffffff1673ffffffffffffffffffffffffffffffffffffffff166108fc349081150290604051600060405180830381858888f1935050505015801561064b573d6000803e3d6000fd5b5050565b604051806106400160405280603290602082028038833980820191505090505090565b60405180610640016040528060329060208202803883398082019150509050509056fea265627a7a72315820c4a60f4f3d7f2d7e7881f6712986f9c43bd472ca8f62b9ee3e26e4e6c7956f4264736f6c63430005100032",
  "source": "// SPDX-License-Identifier: MIT\r\npragma solidity >=0.5.16 <0.8.0;\r\n\r\ncontract BookStore {\r\n    \r\n    enum BookState { Available, NotAvailable }\r\n\r\n    \r\n    uint constant private BOOK_COUNT = 50;\r\n    \r\n    address[BOOK_COUNT] booksKeeper;\r\n    BookState[BOOK_COUNT] booksState;\r\n    \r\n    address payable owner;\r\n    \r\n    constructor(address payable _owner) public {\r\n        owner = _owner;\r\n    }\r\n    \r\n    function borrow(uint _index) public payable {\r\n        require(_index >=0 && _index < BOOK_COUNT);\r\n        require(booksState[_index] == BookState.Available);\r\n        \r\n        booksKeeper[_index] = msg.sender;\r\n        booksState[_index] = BookState.NotAvailable;\r\n        \r\n        owner.transfer(msg.value);\r\n    }\r\n    \r\n    function release(uint _index) public {\r\n        require(_index >=0 && _index < BOOK_COUNT);\r\n        require(booksKeeper[_index] == msg.sender);\r\n        \r\n        booksKeeper[_index] = owner;\r\n        booksState[_index] = BookState.Available;\r\n    }\r\n\r\n\r\n    function getBooksKeeper() public view returns (address[BOOK_COUNT] memory) {\r\n        return booksKeeper;\r\n    }\r\n\r\n    function getBooksState() public view returns (BookState[BOOK_COUNT] memory) {\r\n        return booksState;\r\n    }\r\n\r\n    function getBooks() public view returns (address[BOOK_COUNT] memory, BookState[BOOK_COUNT] memory) {\r\n        return (booksKeeper, booksState);\r\n    }\r\n\r\n    \r\n}",
  "sourcePath": "D:\\blockchain\\berkeley-blockchain\\bookstore\\contracts\\BookStore.sol",
  "compiler": {
    "name": "solc",
    "version": "0.5.16+commit.9c3226ce.Emscripten.clang"
  },
  "schemaVersion": "3.4.3",
  "updatedAt": "2021-08-31T08:06:41.209Z",
  "networkType": "ethereum",
  "devdoc": {
    "methods": {}
  },
  "userdoc": {
    "methods": {}
  }
}